:020000040800F2
:1000000080120020650100089B1000084B100008BA
:1000100099100008ED0A0008851C00080000000087
:10002000000000000000000000000000251400088F
:10003000EF0A0008000000003D110008111500083B
:100040007F0100087F0100087F0100087F01000890
:100050007F0100087F0100087F0100087F01000880
:100060007F0100087F0100087F0100087F01000870
:100070007F0100087F0100087F0100087F01000860
:100080007F0100087F0100087F0100087F01000850
:100090007F0100087F0100087F010008350B000880
:1000A0007F0100087F0100087F0100087F01000830
:1000B0007F01000871150008651700087F0100081E
:1000C0007F0100087F0100087F0100087F01000810
:1000D0007F0100087F0100083D1900087F0100082A
:1000E000F10A00087F0100087F01000800000000FD
:1000F0000000000000000000000000000000000000
:1001000000000000000000007F0100087F010008DF
:100110007F0100087F0100087F0100087F010008BF
:100120007F0100087F0100087F0100087F010008AF
:100130007F0100087F0100087F0100087F0100089F
:100140007F0100087F0100087F0100087F0100088F
:10015000DFF80CD000F0B8FC00480047C53C0008B0
:10016000801200200648804706480047FEE7FEE769
:10017000FEE7FEE7FEE7FEE7FEE7FEE7FEE7FEE757
:100180001515000851010008D2B201E000F8012B5A
:10019000491EFBD270470022F6E710B513460A4607
:1001A00004461946FFF7F0FF204610BDF0B480EA80
:1001B0000102D40F4200B2EB410F02D202460846C0
:1001C00011464A0042D0C30DDDB2C1F3C752AD1A89
:1001D000202D35DAC1F3160141F4000204B1524278
:1001E000C5F1200602FA06F12A411044B3EBD05FB4
:1001F00023D0C4B1012DA0EBC35009DCF0BC4FF0FB
:10020000004202EAC352DBB200F5000000F080BBFE
:10021000400000F1807000EBC350A0F1807040EA14
:10022000D170490009E0490841EAC071A0EBC35010
:1002300000F50000400800EBC350F0BC00F05FBBCD
:100240006142012202EB4101001BF6E7F0BC70475E
:1002500081F00041AAE780F00040A7E780EA0102B0
:1002600010B502F00043400022D04A001FD0010E1A
:1002700001EB1261C0F35600C2F3560240F40000D5
:1002800042F40002A0FB022000047F39140400D0D5
:10029000401C50EA124001D44000491EC2B20C0674
:1002A00004EBD010401C4008802A02D003E000205C
:1002B00010BD20F00100002900DA0020184310BD15
:1002C00030B480EA010202F0004530F0004221F033
:1002D000004013D090B1C30DD40DC2F31601C0F38A
:1002E0001600E41A41F4000140F400027D3491420A
:1002F00001D3641C00E04900002C02DA30BC00206D
:1003000070474FF400000023914201D3891A034340
:1003100040084FEA4101F7D151B1914202D14FF06B
:10032000004105E002D24FF0010101E06FF0010150
:1003300003EBC450284430BC00F0E1BA420005D0C1
:10034000C0F3C7525242914201DC0020704700EBDB
:10035000C15070472DE9FE4F804681EA0300C00F6F
:100360000C46009021F0004123F00045B8EB02005C
:10037000A94105D24046214690461C460B460246FE
:1003800023F00040104347D0270DC7F30A00C3F302
:100390000A510290401A019040286BDAC3F313000F
:1003A00040F4801B0098924620B10023D2EB030A50
:1003B00063EB0B0B01985946C0F14002504600F028
:1003C0006DFA06460D4650465946019A00F085FAE8
:1003D00010EB08006141002487EA115284EAE773B8
:1003E0001A4340D0009A62B3019A012A4FEA075299
:1003F00015DC001B61EB02014FF0004202EA0752DC
:10040000CDE90042001C41F5801132462B4600F038
:10041000BCFA03B0BDE8F08F40462146F9E7001B67
:1004200061EB0201001C41F5801300185B412018AC
:10043000A2F5001747EB030140EAD570B6196D41EC
:1004400011E06D084FEA360645EAC0754FEA0752DB
:10045000001B61EB0201001C41F5801149084FEAC5
:1004600030000019514132462B4603B0BDE8F04F31
:1004700000F07CBA0098012240000023D0EB020279
:1004800063EBE073009821464FEAE074B8EB00009C
:1004900061EB0401E9E783F000435BE781F0004191
:1004A00058E72DE9FE4F81EA030404F0004421F0EF
:1004B000004100944FF0000B23F0004350EA010488
:1004C0005ED052EA03045BD0C3F30A54C1F30A5569
:1004D0002C44A4F2F3340194A0FB0254C1F31301A1
:1004E00041F48011C3F3130343F4801301FB02446E
:1004F00000FB034E840A970A44EA815447EA835773
:10050000A4FB076802958D0A05FB07854FEA932C2B
:1005100004FB0C542705029D4FEA065847EA16379C
:10052000B5EB08056EEB070C870E920E47EA8117B4
:1005300042EA8312A7FB0201B6EB0B0164EB000455
:100540002B0D43EA0C335E1844EB1C50DA4651463F
:10055000E7FB0201C5F313044FEA0B3343EA1453DC
:100560004FEA0432019C43EA0603A4F10C0402940E
:10057000009CCDE900B400F008FA03B0BDE8F08FAC
:1005800000200146F9E72DE9F04D81EA030404F06B
:10059000004B21F0004514464FF0000A23F00041C3
:1005A00050EA050220D054EA01021DD0C5F30A57D3
:1005B0000246C5F31303C1F31300C1F30A5640F416
:1005C000801543F48013A7EB0608101BD64608F2EB
:1005D000FD3873EB050002D308F1010801E0921821
:1005E0005B41B8F1000F03DA00200146BDE8F08D51
:1005F00000204FF48011064684460EE0171B73EB73
:10060000050705D3121B63EB050306434CEA010CF7
:1006100049084FEA300092185B4150EA0107EDD1DA
:1006200052EA030012D082EA040083EA050108437B
:1006300005D0101BAB4106D20122002306E00022A8
:100640004FF0004302E06FF0010253101AEB060076
:100650004CEB085110EB0A0041EB0B01BDE8F04DEB
:1006600000F084B970B521F0004303430CD0C1F30E
:100670000A550024D5EB040564EB0403D617AD1A24
:10068000B34102DB0020014670BD201841EB02514E
:1006900070BDC10F80EAE0700844CA0796230021AC
:1006A00000F036B996230022114600F031B90EB59C
:1006B000C10F80EAE0700844CA07002140F23343CA
:1006C0008DE80E000A460B4600F05FF903B000BD4E
:1006D0000EB540F2334102910021CDE900110A46E6
:1006E0000B4600F052F903B000BD00F0004220F0CC
:1006F0000040C10DC0F3160040F400007F2901DA6C
:1007000000207047962903DCC1F19601C84001E042
:1007100096398840002AF4D04042704720F00040CB
:10072000C10DC0F3160040F400007F2901DA00205B
:100730007047962903DCC1F19601C840704796398D
:100740008840704770B5C1F30A5201F0004500249B
:10075000C1F3130140F2FF3341F480119A4201DAF0
:10076000002070BD40F233439A42A2F2334203DCD0
:10077000524200F0A2F800E090402C43F1D04042F9
:1007800070BDC1F30A5210B5C1F3130140F2FF333B
:1007900041F480119A4201DA002010BD40F2334347
:1007A0009A42A2F2334203DC524200F086F810BDB6
:1007B000904010BD00F0004230F000400AD0C10D62
:1007C00001F56071C0F3160042EA0151C20840070A
:1007D00011437047002001467047000030B5041EE9
:1007E00071F1000404DB4FF00044404264EB01016E
:1007F000141E73F1000405DB1C464FF00043524207
:1008000063EB04038B4208BF824230BD30B5041E47
:1008100071F1000404DB4FF00044404264EB01013D
:10082000141E73F1000405DB1C464FF000435242D6
:1008300063EB0403994208BF904230BD01F00043CE
:1008400030B421F0004150EA010206D00A0DA2F5B1
:100850006072C1F31301002A02DC30BC0020704733
:10086000440F44EAC104C100E01830BC00EBC250A0
:1008700000F045B8002801DBC0F10040002901DB91
:10088000C1F1004181427047002801DBC0F1004006
:10089000002901DBC1F1004188427047202A04DBB6
:1008A000203A00FA02F1002070479140C2F1200383
:1008B00020FA03F3194390407047202A04DB203AC2
:1008C00021FA02F00021704721FA02F3D040C2F170
:1008D00020029140084319467047202A06DBCB17B7
:1008E000203A41FA02F043EAE07306E041FA02F3EB
:1008F000D040C2F1200291400843194670470029B8
:10090000A8BF7047401C490008BF20F00100704795
:1009100010B4B0FA80FC00FA0CF050EA010404BFF5
:1009200010BC704749B1CCF1200421FA04F411FA4B
:100930000CF118BF012121430843A3EB0C01CB1D8F
:100940004FEA00614FEA102042BF002010BC704700
:1009500000EBC35010440029A4BF10BC7047401CDA
:10096000490008BF20F0010010BC704710B5141EEC
:1009700073F1000408DA401C41F1000192185B4158
:100980001A4301D120F0010010BD2DE9F04D92462F
:100990009B4611B1B1FA81F202E0B0FA80F2203246
:1009A0009046FFF77BFF04460F4640EA0A0041EA03
:1009B0000B0153465A46084313D0114653EA01002F
:1009C00019D0C8F140025046FFF777FF05460E46A2
:1009D000504659464246FFF761FF084305D00120C3
:1009E00004E020463946BDE8F08D0020054346EA84
:1009F000E0762C4337430A986305E40AA0EB08002D
:100A00000022FD0A44EA47540A3002D5002001467C
:100A1000E9E7010510196941DDE908450019694157
:100A2000BDE8F04DA2E72DE9F04D00231A461B1A50
:100A30008A4103DB00200146BDE8F08DC1F30A5274
:100A4000C1F3130141F480154FF0000BD10702D11F
:100A500000186D41521E0027044640F2FF1138462F
:100A600001EB620A3E468046024600204FF48011A8
:100A7000FFF723FFC2197141BB1846EB0100B4EB2D
:100A8000030C75EB000C04D3E41A65EB0005174664
:100A90000E46241908F101006D4180463428E3DD3B
:100AA000F91946EB0600091BA84103D24FF0FF32AB
:100AB000134601E0002213461BEB070046EB0A51E8
:100AC000BDE8F04DFFF752BF064C074D06E0E06869
:100AD00040F0010394E8070098471034AC42F6D385
:100AE000FFF73AFB5C7200087C720008FEE7704773
:100AF00010B54FF4184000F057F80C484078012822
:100B000013D00B4C207800280FD102F07DFE002876
:100B10000BD003F0D3FB012080F31088207840F045
:100B200003002070002080F3108810BD54000020C6
:100B30004600002070B51A4C2021204600F0A6F98E
:100B400005464021204600F0A1F945EA40058021F4
:100B5000204600F09BF945EA8005A115204600F0EB
:100B600095F945EAC00000F00F0090F00F0011D099
:100B7000C10702D003F0A2FB0CE00A49420703D5EB
:100B8000087840F0020004E0800703D5087840F0C0
:100B900008000870BDE870404FF4F07000F004B831
:100BA000000801404500002001490860704700002E
:100BB0001404014030B51A498379026853B30B68B5
:100BC00093430B600A1D13680468A3431360027902
:100BD0000A441368046823431360114A08321368F7
:100BE0000468A3431360131D1C680568AC431C60B4
:100BF0004479102C05D021440A68006802430A6039
:100C000030BD116804682143116019680068014310
:100C1000196030BD0079084401689143016030BD1E
:100C20000004014010B58A0721F003040649130FA0
:100C300021440F228C689A4094438C608A689840C3
:100C400002438A6010BD000000000140F0B5CA7880
:100C5000002502F00F03D20601D58A7813430A78E3
:100C60004FF00F0E12F0FF0F4FF001021CD004687E
:100C70000F8802FA05F63740B74211D14FEA850CCA
:100C80000EFA0CF724EA070703FA0CF43C43CF787A
:100C9000282F02D0482F02D002E0466100E0066112
:100CA0006D1C082DE4D304600C88FF2C1ED9446809
:100CB0005FF0000606F1080702FA07F50F882F40DB
:100CC000AF420FD14FEA860C0EFA0CF7BC4303FA81
:100CD0000CF73C43CF78282F00D14561CF78482FBF
:100CE00000D10561761C082EE4D34460F0BD0000FD
:100CF000F0B5144C002801DAE36900E06368420DA6
:100D0000120185B2C0F301579540C0F30346032F8B
:100D100005D0C2020AD50322B240934307E023F074
:100D20007062636823F07063636002E0AB4343F07A
:100D3000706201B12A43002801DAE261F0BD62600D
:100D4000F0BD0000000001400246002092680A4207
:100D500000D0012070474161704701617047000079
:100D600010B504460020B4F5806F0CD24FF4007229
:100D70000649074800F09AFA0449E20724F0010006
:100D800002D0085A000A10BD085C10BD7C06002085
:100D900000FC0008B0F5806F14D2C3070A4A20F0A7
:100DA000010009D0135C43EA012111524FF4007293
:100DB0000549064800F0A6BA135A03F47F430B43D3
:100DC0001352F3E7704700007C06002000FC000887
:100DD00008B58DF800008DF801108DF80220002074
:100DE0008DF80300684600F06DF908BD08B58DF870
:100DF00000008DF801108DF8022001208DF803000D
:100E0000684600F05FF908BD2DE9FC410E46074633
:100E100001211C461546084600F09EF93146384629
:100E2000FFF700FF00208DF804008DF80540012039
:100E30008DF8060000956846FFF7BCFEBDE8FC8112
:100E400038B50D461446012100F086F9ADF8004092
:100E500048208DF8030003208DF8020069462846DB
:100E6000FFF7F4FE38BD38B50D461446012100F0F9
:100E700073F9ADF8004010208DF8030003208DF8C1
:100E8000020069462846FFF7E1FE38BDFFF75CBF68
:100E90000AB1FFF762BFFFF75EBF002100F093BC0D
:100EA000012100F090BC2DE9F04188B08846DDE9D1
:100EB0000E67054614460121184600F041F945F039
:100EC0000100012100F048F9ADF81C4018208DF810
:100ED0001F0003208DF81E0007A94046FFF7B6FE4D
:100EE0003846FFF71BFCADF804000820ADF8000001
:100EF0000024ADF80640ADF802406946304600F0E7
:100F0000CFFC6020ADF80C000120ADF80E00ADF86C
:100F1000144003A9304600F075FC0821304600F06B
:100F2000B1FC08B0BDE8F08189B200F0B6BC0000A9
:100F30000021014800F047BC0004004001210148A5
:100F400000F041BC0004004070B50C46054D81B274
:100F50000122284600F09CFCA1B22846BDE8704062
:100F600000F099BC000400402DE9FF41012106205A
:100F700000F0E6F8022501240026234FADF80050CA
:100F8000ADF80440ADF80660ADF802606946384639
:100F900000F086FC01221146384600F02AFC0121AF
:100FA000384600F00DFC1D208DF80C008DF80D501A
:100FB00003208DF80E008DF80F4003A800F082F892
:100FC000ADF80050ADF80440ADF80660ADF8026031
:100FD0000E4E6946304600F063FC01221146304651
:100FE00000F007FC0121304600F0EAFB1E208DF8DE
:100FF0000C008DF80D408DF80E508DF80F4003A8B1
:1010000000F060F8BDE8FF810004004000080040E7
:101010000021014800F0D7BB000800400121014831
:1010200000F0D1BB0008004070B50C46054D81B200
:101030000122284600F02CFCA1B22846BDE87040F1
:1010400000F029BC000800407047FEE738B50121D8
:10105000202000F081F89C20ADF8000003208DF8DE
:10106000020010200B4C8DF8030069462046FFF764
:10107000EDFD04212046FFF76EFE08212046FFF714
:101080006AFE10212046FFF766FE80212046FFF70A
:1010900062FE38BD00140140FEE7704708B54FF40A
:1010A000A06000F041F826208DF8000000208DF8A7
:1010B00001008DF8020001208DF80300684600F061
:1010C00001F808BD70B50F23C47801780122F4B18E
:1010D000144C2468457804F4E064C4F5E064240A00
:1010E000C4F10406E3408478B5401C402C4301F170
:1010F000E021230181F80034007800F01F018A40CC
:101100004009800000F1E020C0F8002170BD01F02E
:101110001F0082404809800000F1E020C0F88021D3
:1011200070BD00000CED00E0024908430249086070
:10113000704700000000FA050CED00E07047000069
:10114000044A0029D16901D0014300E08143D16103
:101150007047000000100240044A0029916901D044
:10116000014300E08143916170470000001002409C
:10117000F0B52C4A51682C4B11F00C014FF00F05C3
:1011800004D02A4C042903D0082903D0036028E0A6
:10119000046026E05168536805EA914103F4803306
:1011A0000D2901D0891C00E00621BBB1D36A13F4DC
:1011B000803FD36A03F00F0303F101030AD0D66A1C
:1011C000D76AC6F30316761CB4FBF6F4C7F30327FD
:1011D000BF1C7C43B4FBF3F34B43D7E7144B594399
:1011E00001605168134C05EA1111635C0168D94034
:1011F00041605368072505EA1323E35C21FA03F3F2
:101200008360536805EAD323E35CD940C160526828
:10121000032303EA9232231F9A5CB1FBF2F10161CE
:10122000F0BD00000010024000127A0040787D01FD
:1012300000093D000400002070B5054645F6FF7624
:10124000304600F04DF8002812D10A4C206940F0D9
:10125000020020616561206940F040002061304655
:1012600000F03EF8012803D0216921F0020121613C
:1012700070BD0000002002400748C068C10701D0CF
:1012800001207047410701D502207047C00601D5F3
:101290000320704700207047002002400248016987
:1012A00041F08001016170470020024010B5002329
:1012B00006E000BF30F8024B21F813405B1C9BB2E4
:1012C0009342F7D310BD000003480249416003492F
:1012D000416070472301674500200240AB89EFCD94
:1012E00010B50446FFF7C8FF012803D0002C00D139
:1012F000FF2010BD012001F021FB641E2404240CFA
:10130000F0D1F5E72DE9F05F1546A0F100628A46BD
:101310008346B2F5803F52D2FFF7D6FFC2F34806AC
:10132000970AC6F50074A54200D82C46DFF89490C1
:101330004FF0006000EB872080464FF40072214997
:10134000FFF7B4FF00204FF6FF7106E0331839F8BD
:1013500013208A4203D1401C80B2A042F6D3A0429F
:1013600025D24046FFF768FF0020494607E000BF4E
:101370003AF810208319401C21F8132080B2A042B3
:10138000F6D3104940464FF4007200BF00F036F823
:10139000A54210D0281B0AEB440AA344002685B2BC
:1013A0004FF400747F1CA542C2D82C46C0E72246E9
:1013B00051465846EAE7BDE8F05FFFF76FBFBDE86A
:1013C000F09F00007C0A002070B506460D46FF2005
:1013D000FFF786FF00280ED1074C206940F001007E
:1013E00020613580FF20FFF77BFF012803D02169B2
:1013F00021F00101216170BD002002402DE9F04182
:1014000016460F460546002408E000BF37F81410C2
:101410002846FFF7D9FF641CA4B2AD1CB442F5D333
:10142000BDE8F081704700000CB500212E48019105
:101430000091026842F4803202604FF4A0630268B7
:1014400002F400320092019A521C0192009A12B9E1
:10145000019A9A42F3D10268920342D50121009188
:1014600022490A6842F010020A600A6822F0030268
:101470000A600A6842F002020A60416841604168FD
:101480004160416841F480614160C16A184A11407D
:10149000C162C16A174A1143C162016841F08061AB
:1014A000016001680901FCD5416821F47C114160AB
:1014B000416841F4E8114160016841F080710160C8
:1014C00001688901FCD5416821F003014160416850
:1014D00041F0020141604168C1F381010229FAD162
:1014E0000CBD00910CBD0000001002400020024025
:1014F00000F0FEFF440601004FF0E02104280869D7
:1015000003D020F004000861704740F00400FAE7BF
:1015100070470000124810B5016841F001010160F8
:101520004168104A1140416001680F4A1140016052
:10153000016821F480210160416821F4FE014160CD
:10154000016821F0A05101604FF47F01816000210A
:10155000C162FFF769FF05494FF00060086010BDE8
:10156000001002400000FFF0FFFFF6FE08ED00E073
:1015700070B5764C0121204600F02FF900287DD06F
:101580000121204600F01CF9714D6879002875D1C1
:10159000704C714E4FF48071E07BC0F340123046C6
:1015A000FFF776FCE07B7115C0F380123046FFF741
:1015B0006FFCE07B3115C2093046FFF769FCA07B68
:1015C0002021C0F380023046FFF762FCA07B40215F
:1015D000C0F3C0023046FFF75BFCA07B8021C0F364
:1015E00000123046FFF754FC617B0820FFF71CFD1A
:1015F000FFF714FD01206871002080F31088606AF5
:1016000098BB68782978884249D02978A4F13000BD
:1016100000EBC1006062808841080820FFF794FC5D
:10162000616A0888A083A27F887882420CD0A07764
:1016300000EB8000A4F1940202EB800020620069BC
:101640004008A06060602060206A2B7902785A40D0
:10165000E2738B794268DA4022618B798268DA40E2
:101660006261C0688979C840A06103F0D3FA0022A2
:10167000A273216920684318236000E01CE0216AFE
:1016800036480E69B3421AD90426A6730E699B1B0D
:1016900023600B789B0643680FD55B1E0EE004F0B9
:1016A000A3FE012080F310882D48017841F0040149
:1016B0000170002080F3108870BD5B1C4360666978
:1016C0006368334463600E69B3420ED9A67B46F06B
:1016D0000806A6730E699B1B63600B785B06836824
:1016E00001D55B1E00E05B1C8360A669A3683344E0
:1016F000A3600E69B3420ED9A67B46F01006A6730E
:101700000E699B1BA36009780906C16801D5491EB3
:1017100000E0491CC1604178042903D1A17B407FCE
:101720000140A173A08B401E0004000CA08307D1D0
:1017300062622878401CC0B22870062800D12A7046
:10174000A07BE9784840A0736A7170BD0004004036
:101750003400002024060020000C0140540000202A
:101760004500002070B5134C0121204600F035F8EB
:1017700000281ED00121204600F022F80E4C0F4D0B
:101780002021E078C0F380022846FFF781FBE07853
:101790004021C0F3C0022846FFF77AFBE0788021A1
:1017A000C0F300122846FFF773FBBDE87040FFF757
:1017B0002FBC70BD0008004034000020000C014028
:1017C000C943018270470029018802D041F001011C
:1017D00001E021F001010180704702460020138AD8
:1017E00092890B4202EA010202D0002A00D00120B5
:1017F0007047002A828901D00A4300E08A4382812F
:101800007047000030B5028C22F001020284028C85
:101810008388048B22F0020224F073050C882C4389
:101820000D8915434A882A43114DA8420BD0114D0A
:10183000A84208D0104DA84205D0104DA84202D0B1
:101840000F4DA8420DD122F008054A8923F44073B8
:101850002A4322F004058A882A438D891D43CB89B7
:101860002B4383800483C9888186028430BD0000B5
:10187000002C014000340140004001400044014080
:1018800000480140028B22F008020A43028370479D
:10189000018582827047818570478186704700008C
:1018A00030B502881B4B1C4C98420DD0A0420BD087
:1018B000B0F1804F08D0194DA84205D0184DA8426C
:1018C00002D0184DA84203D122F070054A882A435D
:1018D000154DA84206D0154DA84203D022F44075FC
:1018E000CA882A4302808A8882850A8802859842AB
:1018F0000AD0A04208D00E4A904205D00D4A90422C
:1019000002D00D4A904201D1097A018601218182DB
:1019100030BD0000002C01400034014000040040B4
:1019200000080040000C004000100040001400407F
:101930000040014000440140004801402DE9F041D1
:10194000344D40F22551284600F000F9324CA8B33E
:10195000284600F08FF9C2B230493F2A0FD004DC8C
:10196000182A2CD0212A04D117E0402A1CD07E2A24
:101970000CD02178481CC0B2802823D023E001205D
:1019800080F31088087840F0010013E0012080F314
:101990001088087840F002000CE0012080F31088E5
:1019A000087840F0080005E0012080F310880878EE
:1019B00040F020000870002080F3108809E002F059
:1019C0007DFC06E000206378984202D0144B5A5404
:1019D000207040F227763146284600F0BEF80028F5
:1019E00016D0E7780E488030C15D284600F046F9F1
:1019F0007F1CF8B2402800D10020E070A178884216
:101A000006D131462846BDE8F041002200F0C4B8B6
:101A1000BDE8F081004400402D000020450000207A
:101A20007C04002070B50446084D0AE08021284659
:101A300000F08CF80028F9D02178284600F01EF933
:101A4000641C20780028F1D170BD000000440040E3
:101A50000029818902D041F4005101E021F40051B4
:101A600081817047F0B585B0012144F22500FFF770
:101A700073FB01214804FFF763FB4FF40070ADF8DE
:101A8000000018242D4F8DF8034003258DF80250D7
:101A900069463846FFF7DAF83815ADF80000042635
:101AA0008DF8036069463846FFF7D0F80121082019
:101AB000FFF71EF92020ADF800008DF80340204C00
:101AC0008DF8025069462046FFF7C0F84020ADF877
:101AD00000008DF8036069462046FFF7B7F84FF421
:101AE000E13001900020ADF80800ADF80A00ADF833
:101AF0000C00ADF810000C20124CADF80E0001A93E
:101B0000204600F061F8104D01A9284600F05CF86D
:101B100001212046FFF79CFF01212846FFF798FF8F
:101B200040F2255601223146204600F035F80122C8
:101B30003146284600F030F805B0F0BD00080140FD
:101B400000140140003801400044004002460020DB
:101B500012880A4200D00120704730B501F01F0200
:101B600001240025C1F3421304FA02F2012B0FD025
:101B7000022B0FD0838A4FEA11210088134204FA06
:101B800001F400EA040001D000B10125284630BD6F
:101B90008389F0E7038AEEE710B5C1F3421301F041
:101BA0001F040121A140012B07D0022B07D01430C4
:101BB000002A026805D00A4304E00C30F8E7103030
:101BC000F6E78A43026010BD30B50446008A85B04E
:101BD0000D464CF6FF710840E98801432182A18936
:101BE0004EF6F3100140A8882A8910436A890A43F7
:101BF0001043A081A08A4FF6FF410840A989014304
:101C0000A1826846FFF7B4FA1948844201D10398CB
:101C100000E00298A189090400EBC00101EB00106B
:101C2000296801D5490000E08900B0FBF1F0642289
:101C3000B0FBF2F109010B096FF018056B4300EBE3
:101C40008300A3891D044FF0320306D503EBC000C7
:101C5000B0FBF2F000F0070005E003EB0010B0FB72
:101C6000F2F000F00F000843208105B030BD000005
:101C7000003801408088C0F308007047C1F30801B4
:101C800081807047FEE70000014A024900F050BB26
:101C9000752A00084C000020490050EAC12018BFF6
:101CA00004204A0D18BF40F0010040F2FF72B2EB71
:101CB000515F08BF40F00200012808BF05207047AF
:101CC0002DE9F74F144694B00021C4E9021115998B
:101CD000079121F00045C9498D4206DC1599C4E9F8
:101CE000000117B00020BDE8F08FC549DFF814A34C
:101CF000A9423CDD0799C44E0029C44FC44A159936
:101D0000534619DDFEF7C7FB554506D0C14AC24B05
:101D1000FEF7C1FBC4E900010AE04FF0D352BE4B0D
:101D2000FEF7B9FB32463B46FEF7B5FBC4E90001BE
:101D300017B00120BDE8F08FFEF70CFB554506D02B
:101D4000B44AB54BFEF706FBC4E900010AE04FF0C8
:101D5000D352B14BFEF7FEFA32463B46FEF7FAFA93
:101D6000C4E9000117B04FF0FF30BDE8F08FAB4978
:101D7000A942159978DB21F0004183468846A84A9C
:101D8000A84BFEF78EFB0022A74BFEF7E3FAFEF707
:101D9000D9FC0990FEF78BFC06460F469C4A534639
:101DA000FEF77FFB43465A46FEF778FB80468A469D
:101DB000984A994B30463946FEF773FB2A0D0125A8
:101DC0000B9242465346FEF769FB032DC4E900011E
:101DD00039D00B98C1F30A51401A05EB451111395E
:101DE000814230DA9148C346784400EB0510CDF8C3
:101DF0000CA00C90D0E9002330463946FEF751FB89
:101E000002460B460491069058460399FEF743FBA1
:101E100080468A4602460B4658460399FEF73BFB2E
:101E2000049B069AFEF737FB83460C9803913946CC
:101E3000D0E902233046FEF734FB5A46039BFEF7F7
:101E40002AFB6D1CBDE707980028A2BF099817B0B0
:101E5000BDE8F08F616881F000416160099817B0BA
:101E60004042BDE8F08FFFE784461598C1F31301A7
:101E7000C0F30A50A0F2F5304FEA601800F01F06D8
:101E8000C6F12000139000200690079041F4801EB8
:101E900005206D4676B1664A08EB00017A4452F897
:101EA000213002EB8101B3404A68139922FA01F113
:101EB000194305E05F4908EB0002794451F822100C
:101EC000A1FB0E27A1FB0C131A449A4234BF012335
:101ED000002303EB070A05EB8003D3E901B70F44A6
:101EE0008F4234BF0121002193448B4411B19345AB
:101EF00002D903E0934501D2012100E00021C3E9AA
:101F000001B7514445F82010011EA0F10100C1DCC9
:101F10000298059F00F10050800F12900298DDE9B1
:101F200003568000FEF7C3FB834628460D91FEF75B
:101F3000CFFB6FF01D02FEF795FBCDE90E01304699
:101F4000FEF7C6FB6FF03D02FEF78CFB80468A462B
:101F50003846FEF7BDFB6FF05D02FEF783FB0746D8
:101F6000424653461191FEF7F5F9DDE90E23FEF7DF
:101F7000F1F95A460D9BFEF7EDF900250E465A463B
:101F800028460D9BFEF787FADDE90E23FEF783FA5C
:101F900042465346FEF77FFA3A46119BFEF77EFA19
:101FA000DFF898A0244A5346FEF77BFA0746884696
:101FB000234A244B31462846FEF773FA3A464346F5
:101FC000FEF7C8F9074688464FF0A8425346314607
:101FD0002846FEF766FA3A464346FEF7BBF9159ADD
:101FE00012F0004F04D0129A81F000415242129236
:101FF000C4E90001129817B0BDE8F08FFB21E93F5A
:102000007CD90240FB21F93F7370032E8A19A33B50
:10201000000040543163621A61B4D03DFB21394164
:1020200083C8C96D305FE43F0000E03F3C520000D0
:10203000B85100009A510000182D4454FB21F93D7D
:102040003326A611460B113C2DE9FF4D21F0004827
:1020500007460C46B8F1795F08DAFEF773FB0028F3
:1020600001BF0020324904B0BDE8F08D3A46234656
:1020700010461946FEF715FA054602462D480E464B
:102080000B460621784400F05DF82A463346FEF7F9
:1020900008FADDE9022382468B4638462146FEF7E0
:1020A00000FA04460F4652465B4628463146FEF784
:1020B000F8F922463B46FEF7EEF907468A464FF00E
:1020C000FF3228463146FEF7CDFA1B4A90450ADA20
:1020D0003A465346FEF7DFF904B00022BDE8F04D62
:1020E000134BFEF7DBB9154A4245A8BFA8F500150A
:1020F0004FF00004B8BF124D22462B46FEF7CBF935
:102100000646884622462B4600200949FEF7C3F9B9
:1021100004460D463A46534630464146FEF7BBF963
:1021200004B022462B46BDE8F04DFEF7B7B90000DB
:102130000000F03F684F00003333D33F0000E93F19
:102140000000D23F2DE9F0414F1E00EBC7010446CD
:10215000D1E9000115461E4637F006020DD02A4689
:102160003346FEF79EF97F1E04EBC703D3E9002335
:10217000FEF7F0F837F00602F1D1022F25D0042F38
:1021800013D0062F18BFBDE8F0812A463346FEF76C
:1021900088F9D4E90A23FEF7DDF82A463346FEF72C
:1021A00080F9D4E90823FEF7D5F82A463346FEF72E
:1021B00078F9D4E90623FEF7CDF82A463346FEF730
:1021C00070F9D4E90423FEF7C5F82A463346FEF732
:1021D00068F9D4E90223FEF7BDF82A463346FEF734
:1021E00060F9D4E90023BDE8F041FEF7B3B8000080
:1021F0002DE9FF4D054621F0004084B00C46B0F1BA
:10220000795F0BDA2846FFF747FD042808BF00F086
:1022100071F8284608B02146BDE8F08D2A460B46E5
:102220001046FEF73EF906460F462A462346FEF7BD
:1022300038F9804626488A4632463B46052178448E
:10224000FFF780FF83461098029160B3214A224B2A
:1022500040465146FEF725F9CDE900015A46404671
:102260005146029BFEF71DF982468846DDE90601CC
:102270004FF0FF32FEF7F6F952464346FEF70BF9F0
:1022800032463B46FEF70DF9DDE90623FEF703F97A
:10229000DDE90023FEF7FFF808B02A462346BDE833
:1022A000F04DFEF7FBB80B465A4630463946FEF76E
:1022B000F8F8084A084BFEF74DF842465346FEF739
:1022C000F0F808B02A462346BDE8F04DFEF742B8C4
:1022D000AE4E0000495555555555C5BF0122FEF774
:1022E000C1B9FEF737B80022134610461146FEF773
:1022F0004AB90000024A00201107FEF7B3B90000F6
:1023000001FDFFFF02E008C8121F08C1002AFAD130
:1023100070477047002001E001C1121F002AFBD165
:10232000704700000149086070470000500000201D
:102330002DE9F04116460F460446002503E03946D4
:10234000B047641C6D1C20780028F8D12846BDE8F1
:10235000F08100002DE9F84F04460D4621F00040C1
:1023600000917349814211DC7249884201DC06D137
:102370002CB120462946BDE8F84FFFF7AFBF6E48A5
:10238000002DCCBF6D496E49BDE8F88F6D49814283
:1023900011DD6D498142D8BF4FF0FF366DDD20461B
:1023A0002946FFF779FC042808BFFFF7A3FF204662
:1023B0002946BDE8F88F6549654F25F00045814203
:1023C00033DD6449814219DD002632464FF08043F7
:1023D00020462946FDF7BEFF80468A460122204658
:1023E0002946FEF73FF900223B46FEF754F84246E5
:1023F0005346FEF7C8F804460D463EE0012600228B
:10240000BA463B4620462946FDF7A4FF80460F46C4
:102410000022534620462946FEF73DF842463B46F9
:10242000FEF7B1F804460D4627E04B4981421BDD1B
:10243000DFF828A102260022534620462946FEF74F
:1024400030F800223B46FDF785FF80460F4600220C
:10245000534620462946FEF71EF842463B46FEF705
:1024600092F804460D4608E0032622462B4600203B
:102470003B49FEF788F804460D4622462B46104697
:102480001946FEF70EF88B46824602460B46FEF7CB
:1024900008F807460246334888460B46062178442A
:1024A000FFF750FE52465B46FDF7FBFF82462E4883
:1024B0008B463A46434605217844FFF743FE3A46A9
:1024C0004346FDF7EEFF02460B46002E50465946A6
:1024D0000CDAFDF73FFF22462B46FDF7E2FF01B085
:1024E00022462B46BDE8F04FFDF7D8BFFDF732FF7F
:1024F00022462B46FDF7D5FF1C4A7A4402EBC60361
:10250000D3E90023FDF7C7FF22462B46FDF7C3FFA3
:10251000174A7A4402EBC603D3E90023FDF7BEFF56
:10252000009A002AB8BF81F00041BDE8F88F000092
:10253000000010440000F07F182D4454FB21F93FA7
:10254000FB21F9BF0000DC3F0000203E0000F33F0C
:102550000000F03F0000E63F008003400000F83F2D
:102560000000F0BF1E4B0000DC4A00007A4A000069
:10257000424A00002DE9F04D9446CCF1000423F0CE
:1025800000464CEA0404524F46EAD4749A46884600
:1025900021F00042BC4206D8454240EA050442EA26
:1025A000D474BC4204D9BDE8F04D6246FFF799BE31
:1025B000AAF14055A5F17F6555EA0C040BD0022421
:1025C00004EAAA74434DDFF810E144EAD87452EAF1
:1025D000000B04D00CE0BDE8F04DFFF7BBBE002CB3
:1025E00014BF012CBDE8F08D022C30D0032C32D06A
:1025F00056EA0C0B0AD0BE4220D1BA4209D126F0CD
:10260000804622F080423346114617E000291ADB4B
:1026100025E0DFF8C8B0FB44002C04BFDBE9000173
:10262000BDE8F08D012C02BFDBE9000181F0004123
:10263000BDE8F08D022C0AD0032C0CD0BA4212D186
:10264000B8F1000F0BDA23482549BDE8F08D284684
:102650002449BDE8F08D28467146BDE8F08D1D483F
:102660002149BDE8F08D921B12153C2AC4BF1948C0
:102670001D490EDCBAF1000FBEBF12F13C0F002065
:10268000014606DB6246FDF77EFF21F00041FFF7C1
:1026900061FE002C08BFBDE8F08D012C04BF81F065
:1026A0000041BDE8F08D114A114B022C07D0FDF717
:1026B000F2FE2A46BDE8F04D0A4BFDF7ECBEFDF7F1
:1026C000EAFE2A46BDE8F04D064BFDF7E7BE0000E6
:1026D0000000F07F182D4454FB2109C0064A000079
:1026E000FB21F9BFFB210940FB21F93F075C1433B3
:1026F00026A6A13C2DE9F041C1F30A52A2F2FF3611
:102700002F4A304B0D460446142E2FDA002E12DAD3
:10271000FDF720FE00221346FEF778F84CD2002D7C
:10272000BCBF4FF00045002446DB55EA040018BF4B
:10273000254D19D140E0DFF894C02CFA06F705EAE0
:10274000070C5CEA040C08BFBDE8F081FDF702FE4F
:1027500000221346FEF75AF82ED2002D03DD4FF467
:102760008010F0400544BD43002425E0332EC8BF4F
:10277000BDE8F081A6F1140C4FF0FF3727FA0CF7F3
:102780003C4208BFBDE8F081FDF788FE00221346F9
:10279000FEF73CF810D2002D0DDD142E08BF6D1C85
:1027A00009D0C6F13400012101FA00F02044A04212
:1027B00038BF6D1C0446BC4329462046BDE8F08165
:1027C0009C7500883CE4377E0000F03FFFFF0F005F
:1027D00010B5082203491046FEF745FBBDE810403E
:1027E00000F01EB8000C014010B5044605484078C2
:1027F000022806D002F038FA2046BDE8104000F06A
:1028000003B810BD54000020022801D000F008B821
:10281000012208210148FEF73BBB0000000C0140EB
:10282000002208210148FEF733BB0000000C0140E4
:1028300000B5244B21F0004287B09A42DCBF002251
:10284000134629DD204B9A4208D140B94FF00100D0
:10285000FFF768FDFFF747FD07B000BD03DBFFF79B
:102860003DFD07B000BD02AAFFF72AFA10F00301F0
:1028700004BF0DF1080C9CE80F000DD001200129C8
:102880000ED0022914D00DF1080C00909CE80F0026
:10289000FFF7AEFC07B000BDFFF7D6FB07B000BDE9
:1028A0000DF1080C00909CE80F00FFF7A1FC05E07B
:1028B0000DF1080C9CE80F00FFF7C6FB07B081F094
:1028C000004100BDFB21E93F0000F07F10B56FF033
:1028D0000400FEF711FE094809490068B0FBF1F059
:1028E000C1B2084801EB41020170C2EBC1114FF6C1
:1028F000FF7202EAC101418010BD000014000020F7
:1029000000127A00480000200B49498848434FF0E4
:10291000E021486100228A61086940F001000861F5
:102920000869C30701D0C003FAD5086920F0010087
:1029300008618A6170470000480000200B4909784F
:1029400048434FF0E021486100228A61086940F065
:10295000010008610869C30701D0C003FAD50869FE
:1029600020F0010008618A617047000048000020E3
:1029700010B5012181F31088FEF7F2F9002181F3EF
:10298000108810BD10B5012282F31088FEF702FAFC
:10299000002080F3108810BD2DE9F041C1F30A52E8
:1029A000A2F2FF362F4A304B0D460446142E2FDA82
:1029B000002E12DAFDF7CEFC00221346FDF726FFAB
:1029C0004CD2002DA4BF0024254647DA25F0004054
:1029D000204318BF254D41D018E0DFF894C02CFAF1
:1029E00006F705EA070C5CEA040C08BFBDE8F081B5
:1029F000FDF7B0FC00221346FDF708FF2ED2002D94
:102A000003DA4FF48010F0400544BD43002425E074
:102A1000332EC8BFBDE8F081A6F1140C4FF0FF378C
:102A200027FA0CF73C4208BFBDE8F081FDF736FD00
:102A300000221346FDF7EAFE10D2002D0DDA142E07
:102A400008BF6D1C09D0C6F13400012101FA00F065
:102A50002044A04238BF6D1C0446BC432946204692
:102A6000BDE8F0819C7500883CE4377E0000F0BF33
:102A7000FFFF0F0070B5074D0446C1B22846FFF7AF
:102A8000FDF840212846FFF761F80028F9D02046DC
:102A900070BD00000038014070B50D4606460024A8
:102AA00055F8241056F82400FDF7E4FE01D000206C
:102AB00070BD641CE4B2032CF2D3012070BD000091
:102AC0002DE9F04F00269DB08146049635461796B5
:102AD0000A9634468DF860604021F948FDF75BFBAB
:102AE000F748DFF8DCA344384FF0010B0168C0F869
:102AF00045104168C0F849100189A0F84D1017E24F
:102B0000804641381A2803D301201DB0BDE8F08F5C
:102B1000491C8DF8601019AA18A9484602F046FA17
:102B200070B3199800900746FDF7F8FDC0B2039006
:102B3000FDF7B8FD3946FDF78EFBE249FDF78EFB48
:102B4000FDF738FE0022E04BFDF704FCFDF719FE0F
:102B500081B2B8F1470F15D0B8F14D0F71D0A8F17F
:102B6000460015286ED2DFE800F0F06D6DEFEEED57
:102B7000EC6DEB6DEA6DE9E8E76D6D6DE6E5E4009F
:102B80000220C2E703982B286FD023DC12280FD035
:102B90000FDC03287BD005DCA0B3012877D0022806
:102BA00050D174E0042838D00A2833D01128F7D146
:102BB0009CE01C282ED006DC132875D0142801D0E8
:102BC0001528EDD1D1E01E2824D026285FD0282852
:102BD000E6D1D5E03B2868D00ADCA0F131000A2814
:102BE000C0D2DFE800F0CF2F2F2F1AE1E1E1E1E1C1
:102BF0005B2806D007DC3D286FD0502849D05A28E2
:102C0000CED186E043E05C2804D05D2801D05E2868
:102C1000C6D19FE009B94EBB0126039A00201E2AA7
:102C20001BD006DC042A09D00A2A0CD01C2A07D1A2
:102C30000BE0352A1BD05C2A02D11CE08AF800B0D8
:102C4000B7E0C2E0A8E0022212E011B10A29A7D140
:102C500001E0032114E0042112E011B10A299FD1FF
:102C600001E005210CE006210AE08BE047E00722A5
:102C70008AF800209DE011B10A2991D103E00821D2
:102C80008AF800109AE009228AF8002096E0B6BB84
:102C90000226039A0120032A25D007DC1AB3012A51
:102CA00009D0022A09D11EE020E07DE0262A05D0C5
:102CB000502A7ED116E08AF801B07AE0142906D0B5
:102CC0001E2906D0282906D0322999D106E00421F0
:102CD00005E0052103E0062101E06CE007218AF808
:102CE00001106BE008228AF8012062E0039A0220BA
:102CF000112A05D0122A05D0132A5AD105E043E043
:102D0000002203E08AF805B053E002228AF8052089
:102D10004FE019B104200A2999D117E00399032043
:102D20005A2902D08AF804B048E000218AF8041039
:102D300044E0E5E0DDE0D5E0D2E0CCE0C6E0B9E09B
:102D4000B1E0ABE0A2E098E08FE089E003995A2976
:102D500022D033E0039A05205D2A03D000228AF8AE
:102D6000022026E08AF802B023E0039A0620142A03
:102D700003D000228AF803201BE08AF803B018E091
:102D8000072016E008200EB11820BEE6039A03269D
:102D9000312A02D00A2904D0C2E100218AF80610A3
:102DA0000CE08AF806B009E0039A0920363A8AF85E
:102DB000072059B902E00A200029EDD10BFA00F1F1
:102DC0000498014247D015209FE609B117209CE6E0
:102DD000039804282DD007DC70B101280CD00228FC
:102DE0000AD00328D8D117E0052815D0082826D006
:102DF000092824D01E2862D103990B2049B101294A
:102E0000DCD0022901D01E29D8D102218AF808106D
:102E1000D4E78AF808B0D1E703990C2003290BD036
:102E2000042907D00529C9D15FF000018AF80A10EA
:102E3000C4E70C200221F9E78AF80AB0BEE703993B
:102E40000D20082905D00929B8D100218AF80910D8
:102E5000B4E70221FAE70498014388B2049067E0DE
:102E600000980027CAF80C0050E00098CAF810003B
:102E70000A98012740F0010006E00098CAF8140003
:102E80000A98022740F002000A903FE00098CAF832
:102E900018000A98032740F00400F5E70398042778
:102EA0008AF81C0032E005270098FDF71EFCCAF8DE
:102EB00020002BE000980627CAF8240026E02FE126
:102EC000B80000200000C8420000E03F009807273B
:102ED000CAF828001AE000980827CAF82C0015E064
:102EE000092713E000980A2745F00105CAF83400C5
:102EF0000CE000980B2745F00205CAF8380005E001
:102F000000980C2745F00405CAF83C000BFA07F0BE
:102F1000204201D01920F8E540F26131084205D085
:102F2000009911F1FF4F01D30420EEE5204384B254
:102F30009DF8601019F8010000287FF4E1AD0DB193
:102F400006B90226A00606D5FE49DAF82000884216
:102F500001DD1B20D9E59AF802005746012803D06D
:102F6000F948417829B117E0022E15D1E0077DD04C
:102F700012E0E1070ED0F97801290DD1F868FDF7CC
:102F800019FC4FF06632F14BFDF78BFAFDF756FC5A
:102F9000F86001E00169F960E00502D4EA48C1681F
:102FA000F9623878012803D1600679D524F040040D
:102FB000787938B101280BD04FF001094FF00208A1
:102FC00000200AE04FF000094FF00108022004E061
:102FD0004FF002094FF0000801208246DA484430E1
:102FE000C078012819D100270BFA07F0284210D029
:102FF000D548443000EB87010691486BFDF7DAFBBA
:103000004FF06632D14BFDF74CFAFDF717FC0699ED
:1030100048637F1CFFB2032FE6D3032E08D1CA48B2
:1030200044308079012803D1042D01D025206CE59E
:10303000C5480FAB283007C883E80700049880050F
:103040000DD5C1484430C07906285CD8BE4989797D
:10305000814204D00FA902F028FF00287ED0BA4890
:1030600044300178343006905C3800E022E10E9064
:1030700002293BD030300490082970D0032E2AD08A
:103080004DB300270BFA07F028420AD1AE4800EBF7
:103090008700C169AC48443000EB8700416316E00B
:1030A00033E0A94844300178072910D0007900287E
:1030B000A54800EB870078D0C169A348443000EBF5
:1030C00087021392506BFDF771F8139A50637F1CBF
:1030D000FFB2032FD6D39C4844300178C91E05297E
:1030E00048D2DFE801F0B5C2BAC2C800002D7DD0D9
:1030F00014F0500F09D0944F4437786AFDF70EFB57
:10310000C0B2062803D91D20FFE41C20FDE48E492F
:103110004431097F142905D0022901D1210601D5A6
:103120001420F2E424F0500410B1401EC0B202E0BA
:1031300085484430C07907A9179002F0B6FE0028F0
:103140008CD000270BFA07F028420FD07E4844307D
:10315000007F14280FD07C48443001E0F1E025E0E6
:1031600000EB8700416B07A840F827107F1CFFB2D7
:10317000032FE7D379E0744800EB8700416BC06907
:10318000FDF766F87049443101EB8701496BFDF7A3
:103190005FF807A9022F41F82700E7D16A48016CC0
:1031A0000998FDF755F80990E0E735E0002D1DD0AE
:1031B0005FF000070BFA07F028421FD00FA850F865
:1031C0002710614800EB8700C069FDF741F85E49B0
:1031D000443101EB87011391496BFDF739F81399DD
:1031E000022F486313D15848016C00E0A8E0443036
:1031F000C06BFDF72DF80499486308E0524800EBD6
:103200008700416B5048443000EB870041637F1CCE
:10321000FFB2032FCED328E0416B0FA850F8270050
:10322000FCF7C4FF4849443101EB87011391496B16
:10323000FCF7BCFF1399022F48637FF430AF42487C
:10324000016C4430C06BFCF7B1FF049948633EE762
:1032500005B9002607A9062003E005B9002607A93D
:10326000072002F022FE00286BD037484430407817
:10327000082806D00AE0407840B1012806D01E2078
:1032800043E4EDB3012E3BD01F203EE4022E37D1A4
:103290002D4A4432507858B1D16811F0FF4F09D00F
:1032A00008282DD2DFE800F02C040D0DFEFEFEFEF6
:1032B00015B127E1162028E400264FF6DE40044031
:1032C0002AE1EDB30BFA09F70BFA08F007432F4296
:1032D00001D1202019E41C4D05EB8900C16905F1DD
:1032E000440000EB89001A90406BFCF7B1FF00909E
:1032F00005EB8800C16905F1440000EB880000E09F
:1033000000E11B90406BFCF7A3FF039020067CD5E7
:1033100024F08000029006990E98FFF7BDFBE0BBF9
:1033200005F14404E078012813D1A06AFDF742FAC0
:103330004FF06632054BFDF7B4F8FDF77FFA07E072
:10334000DEE0FAE17F96980074000020666639405E
:10335000A06203990846FCF781FFFDF72BFA149150
:103360000A9000990846FCF779FFFDF723FACDE9AA
:103370001510F348806AFDF71DFA04460D46022237
:10338000FDF770F922462B46FDF78BF8DDE9153283
:10339000FDF781F8149B0A9A00E0A8E0FDF77BF89E
:1033A000FDF74CFA074610F1FF4F01D32220ECE461
:1033B0000399009800F00DFAFDF7FCF904460D465C
:1033C0003846FDF7F7F902F0BFFF81F000412B46C8
:1033D0002246FDF7D8F8FDF731FA0446D84841787F
:1033E000032901D184F00044816A11F1FF4F04D315
:1033F00081F0004184F00044816221460398FCF78B
:103400002DFF0099FCF727FF00E014E04FF0FF3597
:103410002946FCF793FF1A99086121460098FCF7AA
:103420001DFF0399FCF7C2FE2946FCF787FF1B9995
:103430000861029C6BE00A990F4201D12320A4E4A9
:10344000BF4924F00E04C978012918D15FF00005A6
:103450000A990BFA05F008420DD0B94800EB850730
:103460003869FDF7A7F94FF06632B64BFDF719F84A
:10347000FDF7E4F938616D1CEDB2032DE8D31A981D
:10348000AF4D01690098FCF7E3FE07461B98016900
:103490000398FCF7DDFE0146384600F09AF90190EA
:1034A0001B9800E024E001691A98006900F091F986
:1034B00007460146A8620198FCF7CAFE20F00045C5
:1034C000A14885421EDDB5F17C5F17DC3846FDF76B
:1034D00071F99E4A9E4BFCF7E4FF0746284601918E
:1034E000FDF768F93A46019BFDF790F90FD205E028
:1034F00035B106990E98FFF7CFFA18B1212044E4B0
:103500001A2042E44FF6DE4004401EB904E04FF6B4
:10351000DE40044024F4E0540CB1242035E4884D0E
:10352000A5F14404286AA061A8786070E868206169
:10353000E96AE068FDF79EF906D0607A10B1E96AA1
:1035400002F09CFEE86AE06095F830002075617A30
:10355000A87A814204D0E16802F090FEA87A6072F5
:10356000217A687A814203D0FFF73EF9687A2072A7
:103570002878012802D1686A00F0A8FD68792071D6
:10358000E878A070032E05D1A879607101281AD0BF
:1035900000202064A179E879814207D00FABA071A7
:1035A00093E8070004F1280383E807002879E07016
:1035B0002878684F801E08283AD2DFE800F0061409
:1035C00027142A392F35E86BE3E707A9179802F08B
:1035D000DCFDA179179881422AD107AB93E8070057
:1035E00004F128030FE026B100223946069800F0C6
:1035F000C1FD0022394607A800F0BCFD07AB93E8E7
:10360000070004F11C0383E8070011E006200E996F
:1036100001E007200E9902F0B8FD09E004F17800FE
:1036200004F1340307C8EEE700206063A063E063A1
:103630006878207008283BD0022E39D1404A1032D9
:1036400008282ED2DFE800F004070D1322255F6260
:103650000022394601E062782169069800F08AFD6F
:103660001FE003A8CDF8089080E8000D04E00020DA
:10367000CDE904A0CDE9029861782069CDE9000187
:10368000AB6A06990E9800F099FB0AE000200090C2
:1036900001E0CDF800B0627821690023069800F0BF
:1036A00093FD04F1780004F11C0307C883E80700C8
:1036B000287AE07128B301F0D7FAE0792649012889
:1036C0002AD084F800B000202071E0706070A071F2
:1036D00060722072497802290ED00FA902F0E5FB32
:1036E00058B30FAB93E8070004F1280383E8070001
:1036F00002F01CFEFFF794F8072001F041FD0020C6
:10370000E071002007E40020009001E0CDF800B057
:10371000627801232169C1E748780228EFD00120AF
:1037200080F310880D48017841F0080101700020F5
:1037300080F3108801F0ACFAE1E707200AE400000A
:10374000B8000020666639400AD7A33BFCA9F1D235
:103750004D62503F000080BF540000204500002013
:1037600010B544210848FCF716FD07480649807942
:10377000283102F09AFB002804D1BDE81040072050
:1037800002F03CBA10BD000074000020014902485C
:1037900003F0F8B9580000209000002018B101286B
:1037A00003D080207047202070474020704718B118
:1037B000012803D00820704702207047042070477A
:1037C00018B1012803D0102070470420704708204A
:1037D000704770B505460846FCF740FD044629468B
:1037E0000846FCF73BFD2146FCF7E0FCFCF7E2FF56
:1037F00002F0AAFDBDE87040FDF720B80022114696
:103800002820FDF7E5BA00002DE9F041184C00260C
:103810004FF400612046FDF739FB4500A114204616
:10382000FDF734FB45EA80054FF400412046FDF7E3
:103830002DFB45EAC00000F00E050E4890F8400050
:10384000400601D485F00E0575B1002401272046FD
:10385000FFF7ADFF284203D007FA04F03043C6B2A9
:10386000641CE4B2032CF2D33046BDE8F0810000C2
:10387000000801403C0500202DE9F04F87B00746C5
:10388000DFF8F0920020009099F800004FF0030B51
:10389000002872D100240DF1080A01262046FFF706
:1038A0008FFF0AF804000CB1012C09D10020FFF7AA
:1038B00087FF05460120FFF783FF05430AF8045000
:1038C00006FA04F0384224D0AB4800EB840006909E
:1038D000406AFCF76FFF0022A84BFCF7E2FD0546AB
:1038E00088460098FCF766FF43462A46CDE900016A
:1038F000FCF78CFF02D2DDE9000107E00698406A80
:10390000FCF758FF00229D4BFCF7CBFDFCF796FF20
:103910000090641CE4B2032CC0D397480125806C4E
:103920000190944903A8091D03F02CF90024A14635
:1039300026464FF0010800BF08FA06F0384206900C
:1039400033D009F1010000F0FF0966B1012E15D056
:1039500088480021C1608848069990F841000842D3
:1039600014D0CDB913E08348001D03F040F981491C
:10397000486041427F488160EDE774E07D48001D6A
:1039800003F02EF97B4948608860E4E725B103A97C
:10399000009841F8260005E0009880F0004103A857
:1039A00040F826101AF806000443761CF6B2032EDF
:1039B000C2D34846FCF78CFE02F0C6FC0646894698
:1039C0000198FCF7F7FE32464B46FCF76AFDFCF720
:1039D00035FFDFF8A091064689F81D4000F060FF32
:1039E0000022314603A800F0DFFC02F02DFD03F0B9
:1039F0006FF8634E0DB3FFF707FF9DF808109DF8B1
:103A000009C002469DF80A800020534641EA0C0195
:103A10004FF0010E13F800C01CEA040F07D00EFA95
:103A200000FC1CEA020F02D0022811D08C43401C7B
:103A3000C0B20328EED389F81D4002F005FD3078AE
:103A400010F0340F21D0307810F0300F07D102E0A1
:103A500024EA0804EBE74DB1307840070AD500F0BE
:103A60002DFC01F015F907B0BDE8F08FFFF7CCFE93
:103A70003842F4D1012080F31088307820F004001F
:103A80003070002080F3108802E014F01C0FB1D1D8
:103A900002F0BEFF00F0F2FEDFF8DC80B8F84C0068
:103AA000FEF732FF95F0010508D044463549D8F8B5
:103AB0005000FCF7D3FB0090606C04E0D8F8501085
:103AC0000091D8F84800BBF10101019001F0FF0B13
:103AD000BFF427AF0024DFF8B0B001264FF4000A8E
:103AE00006FA04F0384224D098F8411045460142C5
:103AF00026D005EB8400296D406AFCF757FB55F88A
:103B0000241022E0FCF756FE00225B46FCF722FC64
:103B100006E000BFFCF74EFE00225B46FCF7BBFC54
:103B2000FCF710FE0546ACB1012C1AD009EB84005D
:103B30004560641CE4B2032CD2D300F0B1FE92E7DE
:103B4000286D58F8241080F00040FCF787FB5045A2
:103B5000E0DBD7E709F1040003F049F82A18291A35
:103B600005E009F1040003F03BF84219411BC9E9E3
:103B70000121DEE7540000203C0500200000F8BFD2
:103B8000450000200000A0400000E03F2DE9F0418A
:103B9000224F4FF40064224639460420FDF750F9C5
:103BA00065002A4639460420FDF74AF926013246C7
:103BB00039460420FDF744F9012221463846FDF735
:103BC00067F9012229463846FDF762F9012231469C
:103BD0003846FDF75DF9124890F84000000718D507
:103BE0000C2322460B210020FDF70EF90C232A4658
:103BF00019460020FDF708F90C2332460F2100205A
:103C0000FDF702F9BDE8F041002211462820FDF73A
:103C1000EDB8BDE8F041FFF7F1BD0000000801403C
:103C20003C0500202DE9F041DFF88880224D064652
:103C300000244FF4000700BF56F82400B84205DA0C
:103C400008EB8401496AFCF715FE02D20120E870F6
:103C500001E0E87838B36878082813D1012080F3B0
:103C600010881648017841F008010170002080F3A7
:103C7000108800BF01F00CF82878002817D1687868
:103C80000028F7D100F01AFB012080F310880C48BF
:103C9000017841F005010170002080F31088BDE833
:103CA000F04100F0F5BF641CE4B2032CC4D3BDE8BE
:103CB000F08100003C050020540000204500002059
:103CC00046000020FDF726FCFDF7E8F9FDF7BEF9F8
:103CD000FDF7C8FE1DA0FDF7D7FF22A0FDF7D4FF1A
:103CE0002AA0FDF79FFEFEF7F1FD02F073F802F047
:103CF000BBF802F019FF03F0D3F820212C48FCF7A1
:103D00004AFA2B4C01202070002080F310880546D1
:103D1000284E294F02F076F8FFF722FD02F08EFAC6
:103D2000FEF756FDFFF732FF00F064FF00F0A6FD3E
:103D300002F06EFE00F0B4FDFFF728FD257035702F
:103D40003D70A570E57001F0B9F8E3E70D0A205564
:103D50005341525431B2E2CAD4D5FDB3A321200D50
:103D60000A0000000D0A20C7EBCAE4C8EB617E63BD
:103D7000B5C4C8CED2E2D7D6C4B8BFD8D6C64C4593
:103D800044B5C4C1C1C3F0200D0A00000D0A20557E
:103D9000534152543228555342D7AAB4AEBFDA2900
:103DA000B2E2CAD4D5FDB3A321200D0A0000000061
:103DB0005400002045000020460000202DE9FF4F60
:103DC0008FB00446DDE91F67DDF87880119850F860
:103DD000285054F828002946FCF7E8F90690119875
:103DE00050F8269054F826004946FCF7DFF9039076
:103DF00085F00040019089F00040009010980699ED
:103E000050F82800FCF724FA04901098039950F811
:103E10002600FCF71DFA83464FF00009594600982A
:103E2000FCF71CFA054604990198FCF717FA294695
:103E3000FCF7BCF9FCF7BEFC05468A4604990098DD
:103E4000FCF70CFA049059460198FCF707FA04991C
:103E5000FCF7FEF9FCF7AEFC2A465346FEF78AFB58
:103E6000FCF7ECFC0546DFF840A2DFF840B22198F1
:103E700050B18F48854214D22846FCF79BFC52462D
:103E80005B46FCF708FB09E08A48854209DC2846C6
:103E9000FCF790FC52465B46FCF75CFAFCF7CEFC64
:103EA000054601211298FCF749FA8349C96B8A46F5
:103EB000FCF7CEF95146FCF7D1F9FCF77BFC02F098
:103EC00043FA089004911298FCF774FC82468B46E2
:103ED0002846FCF76FFC4FF0FF32FCF7C3FB52465D
:103EE0005B46FCF7DEFA21F00041049B089AFCF7E0
:103EF0004AFBFEF751FDFCF744FC80B25FEA000A82
:103F000046D01D9830B15046FCF7CCFB1C99FCF70D
:103F1000A5F91C905046FCF7C5FB83465946284638
:103F2000FCF7CEF9049010985D4654F8271050F82D
:103F30002700FCF78DF92946FCF7C2F904990C908B
:103F40000846FCF78BF94FF08041FCF784F90290AA
:103F5000FCF730FC0022594BFCF7FCF905468B4678
:103F60000498FCF727FC564A564BFCF79AFA2A4667
:103F70005B46FCF796FAFCF761FC05904FF0FF31C9
:103F80000298FCF7DBF901250290BAF1010F04D881
:103F90007EE000BFB9F10C0F21D202990098FCF726
:103FA0005DF9834605990198FCF758F95946FCF7E5
:103FB000FDF8834605990098FCF750F90090DDE97B
:103FC0000101FCF74BF90099FCF742F9CDE900B08B
:103FD00009F1010000F0FF09DFF8ECB038E02846F5
:103FE000FCF760FB0499FCF739F9FCF7E3FB814629
:103FF0000791FEF71DFCFCF721FC0090484607994D
:1040000002F0CCF8FCF71AFC08901198009950F8CF
:1040100028008146FCF722F90D901198089950F874
:1040200026000790FCF71AF90D99FCF711F9019099
:1040300000990798FCF712F9009089F00040089960
:10404000FCF70CF90099FCF703F94FF00009009018
:1040500001990698FCF7AAF844F8280000990398FB
:10406000FCF7A4F844F8260054F827000C99FCF754
:104070009DF844F82700DDE91C12204600F07AF88C
:104080009BF8000000280BD16D1CADB2554581D3C3
:10409000DDE91C12109813B0BDE8F04F00F06AB8CB
:1040A00013B0BDE8F08F0000182D4454FB211940D7
:1040B000BD3706B5BD3706353C0500200000104071
:1040C0004BDA7D5C5555C53F540000202DE9F04189
:1040D000194D0646687802282BD018493046FCF75F
:1040E000BDF8FCF767FBFEF757FCFCF74AFB84B210
:1040F00000F0BAFD32206043FCF7D4FA07461049BD
:104100003046FCF7ABF83946FCF7A2F8FCF752FB57
:10411000FEF742FCFCF735FB80B205E000F0B8FD8D
:104120002878002805D13220FEF7EEFB641EA4B2E9
:10413000F4D2BDE8F0810000540000200000A0414E
:1041400000007A4410B5FFF759FB0420FFF794FBF9
:104150000320FFF791FB00F09BFD05480078002845
:1041600005D1FFF713FBBDE81040FFF70FBD10BDF1
:10417000540000202DE9F0410746114815460E462F
:1041800090F84000800602D53846FFF74BFD0D4CF5
:104190006078022812D000BF00F07AFD2078002855
:1041A0000CD100F0F5FA10B100F050FDF4E72A460A
:1041B00031463846BDE8F04100F0F6B8BDE8F08180
:1041C0003C050020540000202DE9F047374C824682
:1041D000DDF8209060781D4616460F46022862D012
:1041E00000F042FD4FF0000884F81C80284600F0E3
:1041F000DDFC00F0F1FC2E4D58B1012080F3108859
:10420000287840F010002870002080F3108800F01B
:104210003FFD2078002846D1324639465046FFF708
:10422000A9FF244F01263E7086F3108822480178AA
:1042300041F002010170002080F3108800F028FD99
:10424000207800282FD160780028F7D1387801280D
:1042500015D0267787F8008000F01AFD2078002816
:1042600021D102F0D5FB00F009FB00F019FB211D64
:10427000504602F087FCBDE8F04701F0A1BBB9F160
:10428000000F05D0241D07CC84E80700103CE1E7AF
:10429000012080F31088287840F01000287000205A
:1042A00080F31088D6E7BDE8F087000054000020B6
:1042B000460000204400002045000020184810B5AA
:1042C0000178C9062AD4012181F31088017841F0D0
:1042D00010010170002080F3108802F027F8FEF72B
:1042E0009FFA1048417811F00C0F02D18078012814
:1042F00014D10D4804294FF0010181F31088017891
:1043000009D041F008010170002080F31088BDE859
:10431000104002F069B841F02001F4E710BD000040
:104320004500002054000020460000202DE9F04107
:1043300016000C4607464FF000050ED02046641CC0
:10434000FEF716FB690051EAD51100D001210144A6
:10435000CDB207F8010B761EF0D12046FEF708FB20
:10436000A84202D10120BDE8F0810020FBE72DE941
:10437000F04114000E4607464FF000050ED06800CD
:1043800050EAD51000D0012016F8011B0844C5B230
:1043900038467F1CFEF7F6FA641EF0D129463846EF
:1043A000BDE8F041FEF7EEBA2DE9F74F8346ED4840
:1043B0000D4690B04078EE4F00EB400101EBC0009D
:1043C000E94901EB800400202061A0622070E748E9
:1043D00060623968DBF80000FBF740FFB0F5000FC2
:1043E00006DBFCF7E7F90022E24BFBF7B3FF05E041
:1043F000FCF7E0F90022DF4BFCF74DF8FCF7A2F9DF
:1044000007907968DBF80400FBF728FFB0F5000F90
:1044100006DBFCF7CFF90022D64BFBF79BFF05E04C
:10442000FCF7C8F90022D34BFCF735F8FCF78AF902
:104430000890D148079902684368891A089AD21AE5
:10444000891800D549426160079902684368891A52
:10445000089AD21A891A00D5494200260DF110088F
:10446000BA468146A16025E026B3012E22D05AF833
:1044700026105BF82600FBF7F1FEB0F5000F06DB17
:10448000FCF798F90022BB4BFBF764FF05E0FCF753
:1044900091F90022B74BFBF7FEFFFCF753F907A990
:1044A00041F8260059F82610401A00D5404204EB86
:1044B0008601486004EB860021694068814200D98A
:1044C00008462061C6B3012E46D007A850F8261032
:1044D00059F82600081AFCF7DCF85AF8261000BF35
:1044E000FBF7EEFE074648F8260010F1FF4F05D314
:1044F0003046FFF753F921780843207039460846C3
:10450000FBF7ACFEA16AFBF751FE761CF6B2A06287
:10451000032EA9D3FCF74EF901F016FFFCF78EF934
:104520000746A062206900287ED04FF07E5615F124
:10453000FF4F21D38D4D29E0FFE70799D9F80020DF
:10454000D9F80400891A089A101A0844FCF7A1F84F
:104550000246DAF800100DE00799D9F80020D9F8E2
:104560000400891A089A101A081AFCF792F8DAF867
:10457000041002461046B3E7129820B13946284687
:10458000FBF76CFE0546B54200DA35463946304643
:10459000FBF796FE00273E46C3460B905BF82620AD
:1045A00012F0FF4F3FD010460B99FBF757FE4BF828
:1045B0002600FCF7FFF802460B4600206F49FBF788
:1045C000E2FF21F00041FCF739F90AEB860803907D
:1045D000D8F80C000399FBF741FE2946FCF754F983
:1045E00005D3D8F80C000399FBF738FE0546D8F838
:1045F00018000399FBF732FE616AFCF745F901D216
:10460000606A04E0D8F818000399FBF727FE60629F
:1046100009EB86005BF82610C068FBF71FFE3946E1
:10462000FBF719FE074600E098E0761CF6B2032E71
:10463000B4D3DFF8308198F8011098F80000814277
:1046400002D10020606150E04D48874201DD00202A
:104650004BE04C48874203D23846FCF7ABF801E008
:1046600049484A49FCF7EAF8FCF7A4F8434E00220F
:104670003346FBF713FF4FF0FF32FBF7F3FF01F078
:1046800063FEFCF7DBF88346FCF794F80022334620
:10469000FBF704FF06460F46DAF83810606AFBF7AE
:1046A000DDFD5946FBF7DAFDFCF784F832463B4660
:1046B000FBF769FF00221346FCF790F802D20020B6
:1046C000014610E0394637460E46DAF83810606A7F
:1046D000FBF7C4FD5946FBF7C1FDFCF76BF83A4602
:1046E0003346FBF750FFFCF7A9F82946E06108467E
:1046F000FBF7B4FD20624D46D9F81810FCF7BAF864
:1047000001D2216A00E0A969E069FCF7B3F801D29F
:10471000E06907E0A969206AFCF7ACF801D2206AD9
:1047200000E0A869A06104AE134896E80E001838AE
:1047300000F12406183086E80E00216A07AEA96150
:1047400096E80E0080E80E0098F80200414688F8CE
:10475000010000F087F8887000F0C2F813B0BDE8DF
:10476000F08F000028000020F80000209976967E47
:104770003C0500200000E03F100400200000F03F56
:10478000EFFF7F3FEFFF7FBFE90B21E7FDFFEFBFAB
:10479000044801788078814201D1012070470020CF
:1047A000704700002800002010B502F07DF9034892
:1047B0000178C170BDE8104000F092B828000020D8
:1047C000074900B54A780878824207D000F04AF8D5
:1047D0000A78CB789A4200D1C870087000BD0000FA
:1047E00028000020054948780978884201D3401AFA
:1047F00002E0081AC0F11200C0B270472800002081
:10480000074841780078814201D10020704700EBD1
:10481000400101EBC000034901EB8000704700003C
:1048200028000020F80000200C4910B5087800F09E
:1048300019F84978884201D1002010BD00EB4001F1
:1048400001EBC000064901EB80004069FBF7B2FFB5
:1048500001F07AFDBDE81040FBF7F0BF2800002012
:10486000F8000020401CC0B2122800D10020704780
:1048700000B91220401EC0B27047000010B51C21C4
:104880000548FBF788FC05480021012201704170B2
:104890008270C17010BD00001004002028000020AC
:1048A00070B500240C4E0D4D0CE05CB1012C0ED007
:1048B00006EB8400406845F82400641CE4B2032C35
:1048C000F3D370BD301D02F08BF92860F5E7301D81
:1048D00002F08DF96860F0E7540000201004002019
:1048E0002DE9F0414A4D6878FFF7C2FF064600EB1C
:1048F000400101EBC600474FE97807EB80048E4288
:104900007ED00121606AFBF719FDA16AFBF7A6FCC6
:10491000A169FBF7B9FF01D2A06906E00121606A35
:10492000FBF70CFDA16AFBF799FC60613046FFF7CD
:104930009FFF0646E87886422FD1287886422FD1FD
:1049400002F0B2F82CE006EB4600A04600EBC600F1
:1049500007EB80043046FFF78BFF06462878864237
:1049600001D102F0A1F8D4E90501FBF783FF14D0CF
:104970000121606AFBF7E2FCA16AFBF76FFCD8F843
:104980001410FBF713FC8046A169FBF773FF02D2FA
:10499000C4F8148001E0A0696061E8788642D2D151
:1049A000E878B84600EB400101EBC00207EB820457
:1049B00023E006EB4600274600EBC60108EB810426
:1049C00078696169FBF756FF10D20121786AFBF71D
:1049D000B5FCB96AFBF742FC7969FBF7E7FB0746D0
:1049E0006169FBF747FF01D26761EE70D4E9050109
:1049F000FBF740FF00D1EE703046FFF733FF00E0D9
:104A000003E0064668788642D3D1BDE8F081000015
:104A100028000020F8000020FEB506460D460C4692
:104A200010F1FF4F04D32D2001F0F2F986F000467B
:104A3000234F06E039463046FBF710FCA41E06461D
:104A4000E4B2022CF6D224B11E493046FBF706FC34
:104A500006464FF07C513046FBF7A8FB0024FBF7DD
:104A600044FE2E210DF8051030226E460A210DE07D
:104A7000AC4201D1641CE4B2B0FBF1F301FB1303BF
:104A8000B0FBF1F030333355641CE4B20028EFD1B1
:104A900002E03255641CE4B2AC42FAD3AC420CD111
:104AA000641CE0B23254401CC4B206E0301910F865
:104AB000010C01F0ADF9641EE4B2002CF6D1FEBD8C
:104AC0000000C842000020410A4910B591F840108A
:104AD000C90709D0FBF76EFE074A084BFBF7E1FC5C
:104AE000FBF7ACFE042100E00321BDE81040FFF716
:104AF00093BF00003C0500206568E1575128A43FA2
:104B0000094910B591F84010C90708D0FBF752FECB
:104B1000064A074BFBF7C5FCFBF790FE0121BDE8F9
:104B20001040FFF779BF00003C0500206568E157A1
:104B30005128A43F0321FFF76FBFAFF3008010B5EA
:104B4000044602E0641C01F063F920780028F9D1E2
:104B500010BD0A2801D2012204E0642801D20222F9
:104B600000E003220A2100F004B808220221AFF37A
:104B700000803EB500246D4608E0B0FBF1F301FB78
:104B80001303B0FBF1F02B55641CE4B29442F4D350
:104B900008E0281910F8010C3030C0B201F038F9E3
:104BA000641EE4B2002CF4D13EBD0000084900228E
:104BB0000A70084A92F84020120601D401220A70B5
:104BC000002803D0087880F00100087070470000CA
:104BD0002C0000203C05002010B510210348FCF7F4
:104BE00055F903490978484010BD0000000801400C
:104BF0002C00002010B5064C102221460420FCF7A2
:104C00001FF920460122BDE810401021FCF740B9F1
:104C10000008014010B50A4C207801280ED1FFF79A
:104C2000DBFF00280AD00020207006480EC880E86C
:104C30000E000548017841F04001017010BD0000F0
:104C4000440000205800002045000020012080F38F
:104C500010880448017841F002010170002080F3BF
:104C6000108870474500002010B5FFF7EFFF074C94
:104C700000F00EF82078002806D1FFF7C1FD0028CB
:104C8000F6D160780828F3D010BD00005400002051
:104C90002DE9F05F854FDFF818B2864D864C4FF056
:104CA00001084FF000094FF0100A3E7886B384F8EF
:104CB0000180B00701D501200EE0700701D5022068
:104CC0000AE0300701D5032006E0F00601D50420F4
:104CD00002E0B00602D5052000F0F2F9F0070FD08F
:104CE000012000F04DFA012080F31088287820F090
:104CF00010002870002080F310882878C006FCD5AA
:104D0000012080F31088387887F8009089F31088A4
:104D10002E78002E7DD0F00603D584F80080BDE803
:104D2000F09FF0070BD000F079FE012080F310888F
:104D3000287820F001002870002080F3108816F0F9
:104D4000680F39D0607850B110F07C0F2AD0082855
:104D500003D101F0A9FE84F80280607808B902202E
:104D6000A070700608D56078082801D140206070D6
:104D7000A07840F00800A070300704D56078800665
:104D800001D484F801A0B0060CD5062000F0F8F993
:104D9000A078810701D546F0040640F00400A07019
:104DA00020206070012080F31088287820F06800AF
:104DB0002870002080F31088B0073ED516F0680FE9
:104DC00031D1607828B110F0500F2CD0A078800736
:104DD00029D5A078400713D59BF8090038B1DBF836
:104DE0000C1001F05DFA4FF47A60FDF78DFD9BF831
:104DF000080028B1FDF708FD4FF47A70FDF784FD37
:104E0000FFF7FEFC58B1A078000708D408206070B6
:104E100000E028E001F018FB01F05AFE01E084F800
:104E2000019084F80290012080F31088287820F007
:104E300002002870002080F31088700713D5607876
:104E400010F0300F01D0E078B8B184F8029084F807
:104E50000190012080F31088287820F00400287049
:104E6000002080F31088607810F07C0F01D001F0F2
:104E7000EBFA607820280CD013E0A078400703D527
:104E800001F054FAFDF7CCFCA07840F00200A070CD
:104E9000DFE7A078800704D501F072FE08B984F836
:104EA00001A0A07800287FF400AF38E7460000207A
:104EB0007400002045000020540000202DE9F0413E
:104EC00000252C4600F0FCFC354E0027DFF8D4808E
:104ED000707801280AD001F053FE58B132480178A9
:104EE00041F020010170FFF7D3FE04E0022000F042
:104EF00047F947E077702B4801F0B8FF42E00A28F5
:104F000005D00D2803D00DB329283BD11AE008F8AD
:104F10000470244CFFF7BCFE307878B9207858B183
:104F2000242806D0707801280AD02046FDF7C8FD55
:104F300002E0204601F062FE00F060FE002512E073
:104F40000920F9E7012D1DD100251BE0202819D9E2
:104F50002F2817D0282808D03B2808D04F2C08D35A
:104F60000B2000F04BFE00240CE001250AE0022596
:104F700008E0A0F16101192900D8203808F80400E0
:104F8000641CE4B200F02AFFFF28B8D1FFF75EFEF0
:104F9000FFF77EFE30780028F4D0BDE8F0810000F5
:104FA000540000202C040020450000202DE9F05F73
:104FB00081460878884600EB0904002014F8011B9C
:104FC000174605460246034606462D2902D02B29E0
:104FD00001D002E0012614F8011B3039C9B20929B9
:104FE00010D8521CD2B2082A07D80BB16D1E6DB270
:104FF00000EB800001EB4000EDE7002BEBD16D1CD6
:105000006DB2E8E7FE2900D1B3B1BAB1FBF74AFBB4
:1050100010F0FF4F2AD0DFF86CB06FF0010A554551
:105020000FDCFBF7C7FB5A46174BFBF73AFAFBF7C7
:1050300005FCAD1C6DB2F2E70123CCE70020BDE812
:10504000F09F002D08DAFBF7B5FB104A104BFBF779
:1050500028FAFBF7F3FB09E008DDDFF838A051463A
:10506000FBF7FCF86D1E6DB2002DF8DC0EB180F080
:1050700000403860A4EB0900401E88F800000120C1
:10508000DDE700007B14AE47E17A843F9A99999955
:105090009999B93F0000204110B50020FDF768FC48
:1050A000092801D0002010BD542201210348FFF738
:1050B0003DF90028F7D0012010BD00003C0500207C
:1050C00010B504460EA0FFF738FD062C09D2DFE824
:1050D00004F00803051113150BA000E00DA0FFF765
:1050E0002CFD0FA0FFF729FDBDE810404FF4FA702A
:1050F000FDF70ABC0BA0F2E70FA0F0E711A0EEE766
:10510000414C41524D3A200048617264206C696DF7
:1051100069740000536F6674206C696D69740000D7
:105120000D0A000041626F727420647572696E67C7
:10513000206379636C65000050726F626520666160
:10514000696C0000486F6D696E67206661696C006C
:1051500010B5044605A0FFF7F0FC2046FFF7EFFC72
:10516000BDE8104005A0FFF7E8BC00005B302E3919
:105170006A2E32303136303732363A005D0D0A0051
:1051800010B5044610A0FFF7D8FC092C0BD2DFE8BD
:1051900004F00A05070F1113151719000BA000E002
:1051A0000FA0FFF7CAFCBDE8104012A0FFF7C5BC76
:1051B00011A0F6E715A0F4E716A0F2E718A0F0E7B3
:1051C0001AA0EEE71BA0ECE75B00000052657365D8
:1051D0007420746F20636F6E74696E7565000000D3
:1051E000272448277C2724582720746F20756E6C4D
:1051F0006F636B005D0D0A0043617574696F6E3AF1
:1052000020556E6C6F636B6564000000456E6162D3
:105210006C65640044697361626C65640000000041
:10522000436865636B20446F6F72000050676D20A8
:10523000456E6400526573746F72696E67206465B1
:105240006661756C7473000010B546A0FFF775FCBD
:10525000454C2078092812D2DFE800F005070B0D35
:10526000111111110F0041A000E041A0FFF765FCF2
:105270000DE040A0FAE740A0F8E740A0F6E740A024
:10528000FFF75BFC2078801EC0B2FFF762FC3EA0F7
:10529000FFF753FCA0793630C0B2FFF75AFC2079F3
:1052A00020B1012804D0022805D11CE037A000E07D
:1052B00038A0FFF742FCA078B8B138A0FFF73DFC5A
:1052C000E078A0B137A000BFFFF737FC6078012875
:1052D0000FD036A0FFF731FCE07960B101280CD087
:1052E00002280DD113E033A0E3E734A0E6E735A0B0
:1052F000EAE736A0EEE737A000E037A0FFF71DFC95
:10530000607A80B1012804D0022807D103E033A0DD
:10531000F4E733A000E033A0FFF70FFC207A20B1C0
:10532000022807D103E030A0F6E730A000E030A06B
:10533000FFF703FC2FA0FFF700FC207DFFF709FC1F
:105340002DA0FFF7FAFB2069FFF7DAFB2BA0FFF790
:10535000F4FBE068FFF7D4FBBDE8104028A0FFF79E
:10536000ECBB00005B000000740000204730000030
:105370004731000047320000473300004738300013
:105380004733382E00000000204700002047313707
:105390000000000020473138000000002047323074
:1053A0000000000020473931000000002047393458
:1053B0000000000020473139000000002047323152
:1053C000000000002047393000000000204739333A
:1053D00000000000204D3000204D3100204D3200F3
:1053E000204D3300204D3400204D3500204D390034
:1053F000204D3800205400002046000020530000BB
:105400005D0D0A000148FFF798BB00001871000805
:105410002DE9F04164277BA0FFF78FFB7A4C14F84D
:10542000300FFFF796FB79A0FFF787FBE078FFF7D7
:1054300090FB7DA0FFF781FB6078FFF78AFB82A0DD
:10544000FFF77BFB6078FFF790FB86A0FFF775FB0B
:10545000A078FFF77EFB85A0FFF76FFBA078FFF732
:1054600084FB88A0FFF769FB207CC0F38000FFF776
:1054700070FB86A0FFF761FB207CC0F38010FFF774
:1054800068FB8BA0FFF759FB207CC009FFF761FB8D
:105490008FA0FFF752FB2079FFF75BFB94A0FFF78B
:1054A0004CFB2079FFF761FB97A0FFF746FBA06854
:1054B000FFF740FB96A0FFF740FBE068FFF73AFBE1
:1054C0009BA0FFF73AFB207C00F00100FFF741FBB7
:1054D0009EA0FFF732FB207CC0F34010FFF739FBA2
:1054E000A2A0FFF72AFB207CC0F3C000FFF731FB2E
:1054F000A5A0FFF722FB207CC0F30010FFF729FBDB
:10550000A8A0FFF71AFB607CFFF723FBACA0FFF716
:1055100014FB607CFFF729FBB0A0FFF70EFB60696E
:10552000FFF708FBAFA0FFF708FBA069FFF702FB3E
:10553000B4A0FFF702FB207FFFF70BFBB9A0FFF73A
:10554000FCFA206A303CFFF7F5FABEA0FFF7F5FA47
:1055500000260025C2A0FFF7F0FA7819C0B2FFF7C5
:10556000F8FA38A0FFF7E9FA36B1012E07D0022E7B
:1055700013D0032E08D117E054F8250002E004EB05
:105580008500C068FFF7D6FAB6A0FFF7D6FA8DB14E
:10559000012D11D0022D12D119E004EB8500B24982
:1055A0008069FAF78DFEEDE704EB8500406A80F034
:1055B0000040E7E7ADA000E0ADA0FFF7BEFA46B1BE
:1055C000012E08D0022E18D0032E07D117E0A9A073
:1055D000F3E7A9A000E0ABA0FFF7AFFAAEA0FFF79A
:1055E000ACFA6D1CEDB2032DB4D30A37761CF6B2BB
:1055F000FFB2042EADD3BDE8F081A8A0ECE7ACA0CB
:10560000EAE7000024303D003C05002020287374A8
:1056100065702070756C73652C2075736563290D3A
:105620000A24313D00000000202873746570206951
:10563000646C652064656C61792C206D73656329E9
:105640000D0A24323D00000020287374657020701C
:105650006F727420696E76657274206D61736B3A37
:1056600000000000290D0A24333D00002028646951
:105670007220706F727420696E76657274206D612D
:10568000736B3A00290D0A24343D000020287374FE
:10569000657020656E61626C6520696E76657274F6
:1056A0002C20626F6F6C290D0A24353D000000002C
:1056B00020286C696D69742070696E7320696E763C
:1056C0006572742C20626F6F6C290D0A24363D00C0
:1056D000202870726F62652070696E20696E766531
:1056E00072742C20626F6F6C290D0A2431303D00DA
:1056F0002028737461747573207265706F727420E2
:105700006D61736B3A000000290D0A2431313D00B0
:1057100020286A756E6374696F6E206465766961AE
:1057200074696F6E2C206D6D290D0A2431323D0095
:10573000202861726320746F6C6572616E63652CE2
:10574000206D6D290D0A2431333D0000202872653B
:10575000706F727420696E636865732C20626F6F5E
:105760006C290D0A2432303D000000002028736FA0
:105770006674206C696D6974732C20626F6F6C297C
:105780000D0A2432313D0000202868617264206CCB
:10579000696D6974732C20626F6F6C290D0A243255
:1057A000323D00002028686F6D696E672063796361
:1057B0006C652C20626F6F6C290D0A2432333D001A
:1057C0002028686F6D696E672064697220696E7643
:1057D000657274206D61736B3A000000290D0A2414
:1057E00032343D002028686F6D696E6720666565FC
:1057F000642C206D6D2F6D696E290D0A2432353DA4
:10580000000000002028686F6D696E672073656571
:105810006B2C206D6D2F6D696E290D0A2432363D7B
:10582000000000002028686F6D696E672064656263
:105830006F756E63652C206D736563290D0A2432C4
:10584000373D00002028686F6D696E672070756CA9
:105850006C2D6F66662C206D6D290D0A000000000E
:1058600024000000202800000000614578000000AE
:10587000790000007A0000002C20737465702F6D91
:105880006D000000206D617820726174652C206DC0
:105890006D2F6D696E000000290D0A0020616363A1
:1058A000656C2C206D6D2F7365635E320000000007
:1058B000206D61782074726176656C2C206D6D00AE
:1058C00001A0FFF73AB900000D0A4772626C203060
:1058D0002E396A205B27242720666F722068656C4A
:1058E000705D0D0A00000000FEB5002469462046E8
:1058F00000F0DBFAC0B127A0FFF71FF9062C17D084
:10590000072C17D004F13600C0B2FFF722F922A00D
:10591000FFF713F900256E4656F82500FFF7D4F877
:10592000022D0BD21DA00AE0072000F067F9FEBD92
:105930001BA000E01BA0FFF700F9E8E71AA0FFF7A3
:10594000FCF86D1CEDB2032DE6D3641CE4B2072C09
:10595000CCD916A0FFF7F1F8164D002405EB840012
:10596000406BFFF7B1F8022C01D20CA000E00EA0B2
:10597000FFF7E3F8641CE4B2032CEFD30EA0FFF7AB
:10598000DCF8286CFFF7A0F807A0FFF7D6F800F0C6
:1059900017F8FEBD5B4700003A0000002C00000035
:1059A00032380000333000005D0D0A005B473932A9
:1059B0003A000000740000205B544C4F3A00000095
:1059C000FEB511A0FFF7B9F8114D00246E4621462F
:1059D000284601F0E7F846F82400FFF775F8022C96
:1059E00002D20CA0FFF7A9F8641CE4B2032CEED39A
:1059F00006A0FFF7A2F806481038007FFFF7A9F8C5
:105A000005A0FFF79AF8FEBD5B5052423A00000035
:105A1000640000202C0000005D0D0A00F0B54D4828
:105A200089B0011D05AC0EC984E80E004078082835
:105A300011D007DC68B101284BD002284BD00428D4
:105A40000CD144E0102840D0202846D0402805D171
:105A500001E041A000E042A0FFF76FF8424D95F849
:105A60003400800703D005A9684601F08BF895F84B
:105A700034006E46C00710D03CA0FFF75EF800244B
:105A800056F82400FFF720F8022C02D239A0FFF7C5
:105A900054F8641CE4B2032CF2D395F83400800768
:105AA0002FD535A0FFF749F8354F002407EB8400C8
:105AB000416B806AFAF77AFB56F82410FAF7CBFBB1
:105AC00046F82400022C0AD00EE02EA0C4E72FA036
:105AD000C2E730A0C0E731A0BEE732A0BCE7396C16
